{
  "contractName": "DeviceToken",
  "abi": [
    {
      "inputs": [],
      "stateMutability": "payable",
      "type": "constructor",
      "payable": true
    },
    {
      "anonymous": false,
      "inputs": [
        {
          "indexed": true,
          "internalType": "address",
          "name": "owner",
          "type": "address"
        },
        {
          "indexed": true,
          "internalType": "address",
          "name": "approved",
          "type": "address"
        },
        {
          "indexed": true,
          "internalType": "uint256",
          "name": "tokenId",
          "type": "uint256"
        }
      ],
      "name": "Approval",
      "type": "event"
    },
    {
      "anonymous": false,
      "inputs": [
        {
          "indexed": true,
          "internalType": "address",
          "name": "owner",
          "type": "address"
        },
        {
          "indexed": true,
          "internalType": "address",
          "name": "operator",
          "type": "address"
        },
        {
          "indexed": false,
          "internalType": "bool",
          "name": "approved",
          "type": "bool"
        }
      ],
      "name": "ApprovalForAll",
      "type": "event"
    },
    {
      "anonymous": false,
      "inputs": [
        {
          "indexed": false,
          "internalType": "address",
          "name": "_newDevice",
          "type": "address"
        },
        {
          "indexed": false,
          "internalType": "string",
          "name": "_name",
          "type": "string"
        }
      ],
      "name": "DeviceAdded",
      "type": "event"
    },
    {
      "anonymous": false,
      "inputs": [
        {
          "indexed": false,
          "internalType": "address",
          "name": "_to",
          "type": "address"
        },
        {
          "indexed": false,
          "internalType": "uint256",
          "name": "numberOfDevices",
          "type": "uint256"
        },
        {
          "indexed": false,
          "internalType": "uint256",
          "name": "date",
          "type": "uint256"
        }
      ],
      "name": "DevicesLoaned",
      "type": "event"
    },
    {
      "anonymous": false,
      "inputs": [
        {
          "indexed": false,
          "internalType": "uint256",
          "name": "_value",
          "type": "uint256"
        }
      ],
      "name": "PaymentCollected",
      "type": "event"
    },
    {
      "anonymous": false,
      "inputs": [
        {
          "indexed": false,
          "internalType": "address",
          "name": "_holder",
          "type": "address"
        },
        {
          "indexed": false,
          "internalType": "uint256",
          "name": "_Id",
          "type": "uint256"
        },
        {
          "indexed": false,
          "internalType": "uint256",
          "name": "amountSent",
          "type": "uint256"
        }
      ],
      "name": "TokenRedeemed",
      "type": "event"
    },
    {
      "anonymous": false,
      "inputs": [
        {
          "indexed": true,
          "internalType": "address",
          "name": "from",
          "type": "address"
        },
        {
          "indexed": true,
          "internalType": "address",
          "name": "to",
          "type": "address"
        },
        {
          "indexed": true,
          "internalType": "uint256",
          "name": "tokenId",
          "type": "uint256"
        }
      ],
      "name": "Transfer",
      "type": "event"
    },
    {
      "inputs": [
        {
          "internalType": "address",
          "name": "to",
          "type": "address"
        },
        {
          "internalType": "uint256",
          "name": "tokenId",
          "type": "uint256"
        }
      ],
      "name": "approve",
      "outputs": [],
      "stateMutability": "nonpayable",
      "type": "function"
    },
    {
      "inputs": [
        {
          "internalType": "address",
          "name": "owner",
          "type": "address"
        }
      ],
      "name": "balanceOf",
      "outputs": [
        {
          "internalType": "uint256",
          "name": "",
          "type": "uint256"
        }
      ],
      "stateMutability": "view",
      "type": "function",
      "constant": true
    },
    {
      "inputs": [],
      "name": "baseURI",
      "outputs": [
        {
          "internalType": "string",
          "name": "",
          "type": "string"
        }
      ],
      "stateMutability": "view",
      "type": "function",
      "constant": true
    },
    {
      "inputs": [
        {
          "internalType": "uint256",
          "name": "",
          "type": "uint256"
        }
      ],
      "name": "devices",
      "outputs": [
        {
          "internalType": "string",
          "name": "deviceName",
          "type": "string"
        },
        {
          "internalType": "address",
          "name": "deviceAddress",
          "type": "address"
        },
        {
          "internalType": "address",
          "name": "deviceOwner",
          "type": "address"
        },
        {
          "internalType": "uint256",
          "name": "collateral",
          "type": "uint256"
        },
        {
          "internalType": "uint256",
          "name": "tokenId",
          "type": "uint256"
        },
        {
          "internalType": "bool",
          "name": "loaned",
          "type": "bool"
        },
        {
          "internalType": "uint256",
          "name": "loanPeriod",
          "type": "uint256"
        }
      ],
      "stateMutability": "view",
      "type": "function",
      "constant": true
    },
    {
      "inputs": [
        {
          "internalType": "uint256",
          "name": "tokenId",
          "type": "uint256"
        }
      ],
      "name": "getApproved",
      "outputs": [
        {
          "internalType": "address",
          "name": "",
          "type": "address"
        }
      ],
      "stateMutability": "view",
      "type": "function",
      "constant": true
    },
    {
      "inputs": [
        {
          "internalType": "address",
          "name": "owner",
          "type": "address"
        },
        {
          "internalType": "address",
          "name": "operator",
          "type": "address"
        }
      ],
      "name": "isApprovedForAll",
      "outputs": [
        {
          "internalType": "bool",
          "name": "",
          "type": "bool"
        }
      ],
      "stateMutability": "view",
      "type": "function",
      "constant": true
    },
    {
      "inputs": [],
      "name": "name",
      "outputs": [
        {
          "internalType": "string",
          "name": "",
          "type": "string"
        }
      ],
      "stateMutability": "view",
      "type": "function",
      "constant": true
    },
    {
      "inputs": [
        {
          "internalType": "uint256",
          "name": "tokenId",
          "type": "uint256"
        }
      ],
      "name": "ownerOf",
      "outputs": [
        {
          "internalType": "address",
          "name": "",
          "type": "address"
        }
      ],
      "stateMutability": "view",
      "type": "function",
      "constant": true
    },
    {
      "inputs": [
        {
          "internalType": "address",
          "name": "from",
          "type": "address"
        },
        {
          "internalType": "address",
          "name": "to",
          "type": "address"
        },
        {
          "internalType": "uint256",
          "name": "tokenId",
          "type": "uint256"
        }
      ],
      "name": "safeTransferFrom",
      "outputs": [],
      "stateMutability": "nonpayable",
      "type": "function"
    },
    {
      "inputs": [
        {
          "internalType": "address",
          "name": "from",
          "type": "address"
        },
        {
          "internalType": "address",
          "name": "to",
          "type": "address"
        },
        {
          "internalType": "uint256",
          "name": "tokenId",
          "type": "uint256"
        },
        {
          "internalType": "bytes",
          "name": "_data",
          "type": "bytes"
        }
      ],
      "name": "safeTransferFrom",
      "outputs": [],
      "stateMutability": "nonpayable",
      "type": "function"
    },
    {
      "inputs": [
        {
          "internalType": "address",
          "name": "operator",
          "type": "address"
        },
        {
          "internalType": "bool",
          "name": "approved",
          "type": "bool"
        }
      ],
      "name": "setApprovalForAll",
      "outputs": [],
      "stateMutability": "nonpayable",
      "type": "function"
    },
    {
      "inputs": [
        {
          "internalType": "bytes4",
          "name": "interfaceId",
          "type": "bytes4"
        }
      ],
      "name": "supportsInterface",
      "outputs": [
        {
          "internalType": "bool",
          "name": "",
          "type": "bool"
        }
      ],
      "stateMutability": "view",
      "type": "function",
      "constant": true
    },
    {
      "inputs": [],
      "name": "symbol",
      "outputs": [
        {
          "internalType": "string",
          "name": "",
          "type": "string"
        }
      ],
      "stateMutability": "view",
      "type": "function",
      "constant": true
    },
    {
      "inputs": [
        {
          "internalType": "uint256",
          "name": "index",
          "type": "uint256"
        }
      ],
      "name": "tokenByIndex",
      "outputs": [
        {
          "internalType": "uint256",
          "name": "",
          "type": "uint256"
        }
      ],
      "stateMutability": "view",
      "type": "function",
      "constant": true
    },
    {
      "inputs": [],
      "name": "tokenCounter",
      "outputs": [
        {
          "internalType": "uint256",
          "name": "",
          "type": "uint256"
        }
      ],
      "stateMutability": "view",
      "type": "function",
      "constant": true
    },
    {
      "inputs": [
        {
          "internalType": "address",
          "name": "owner",
          "type": "address"
        },
        {
          "internalType": "uint256",
          "name": "index",
          "type": "uint256"
        }
      ],
      "name": "tokenOfOwnerByIndex",
      "outputs": [
        {
          "internalType": "uint256",
          "name": "",
          "type": "uint256"
        }
      ],
      "stateMutability": "view",
      "type": "function",
      "constant": true
    },
    {
      "inputs": [
        {
          "internalType": "uint256",
          "name": "tokenId",
          "type": "uint256"
        }
      ],
      "name": "tokenURI",
      "outputs": [
        {
          "internalType": "string",
          "name": "",
          "type": "string"
        }
      ],
      "stateMutability": "view",
      "type": "function",
      "constant": true
    },
    {
      "inputs": [],
      "name": "totalSupply",
      "outputs": [
        {
          "internalType": "uint256",
          "name": "",
          "type": "uint256"
        }
      ],
      "stateMutability": "view",
      "type": "function",
      "constant": true
    },
    {
      "inputs": [
        {
          "internalType": "address",
          "name": "from",
          "type": "address"
        },
        {
          "internalType": "address",
          "name": "to",
          "type": "address"
        },
        {
          "internalType": "uint256",
          "name": "tokenId",
          "type": "uint256"
        }
      ],
      "name": "transferFrom",
      "outputs": [],
      "stateMutability": "nonpayable",
      "type": "function"
    },
    {
      "inputs": [
        {
          "internalType": "address",
          "name": "operator",
          "type": "address"
        },
        {
          "internalType": "address",
          "name": "from",
          "type": "address"
        },
        {
          "internalType": "uint256",
          "name": "tokenId",
          "type": "uint256"
        },
        {
          "internalType": "bytes",
          "name": "data",
          "type": "bytes"
        }
      ],
      "name": "onERC721Received",
      "outputs": [
        {
          "internalType": "bytes4",
          "name": "",
          "type": "bytes4"
        }
      ],
      "stateMutability": "nonpayable",
      "type": "function"
    },
    {
      "inputs": [
        {
          "internalType": "string",
          "name": "_newName",
          "type": "string"
        },
        {
          "internalType": "address",
          "name": "_NewAddress",
          "type": "address"
        }
      ],
      "name": "addDevice",
      "outputs": [],
      "stateMutability": "nonpayable",
      "type": "function"
    },
    {
      "inputs": [],
      "name": "returnDeviceCount",
      "outputs": [
        {
          "internalType": "uint256",
          "name": "count",
          "type": "uint256"
        }
      ],
      "stateMutability": "view",
      "type": "function",
      "constant": true
    },
    {
      "inputs": [
        {
          "internalType": "uint256",
          "name": "_devices",
          "type": "uint256"
        },
        {
          "internalType": "address",
          "name": "requestedAddress",
          "type": "address"
        },
        {
          "internalType": "uint256",
          "name": "_duration",
          "type": "uint256"
        }
      ],
      "name": "loanToken",
      "outputs": [],
      "stateMutability": "payable",
      "type": "function",
      "payable": true
    },
    {
      "inputs": [
        {
          "internalType": "address payable",
          "name": "tokenHolder",
          "type": "address"
        }
      ],
      "name": "redeemTokens",
      "outputs": [],
      "stateMutability": "nonpayable",
      "type": "function"
    }
  ],
  "bytecode": "0x60806040526040518060400160405280600b81526020017f646576696365546f6b656e0000000000000000000000000000000000000000008152506040518060400160405280600381526020017f4445560000000000000000000000000000000000000000000000000000000000815250620000886301ffc9a760e01b6200016f60201b60201c565b8160069080519060200190620000a092919062000247565b508060079080519060200190620000b992919062000247565b50620000d26380ac58cd60e01b6200016f60201b60201c565b620000ea635b5e139f60e01b6200016f60201b60201c565b6200010263780e9d6360e01b6200016f60201b60201c565b50506000600a819055506611c37937e08000600b8190555066071afd498d0000600c8190555033600d60006101000a81548173ffffffffffffffffffffffffffffffffffffffff021916908373ffffffffffffffffffffffffffffffffffffffff160217905550620003df565b63ffffffff60e01b817bffffffffffffffffffffffffffffffffffffffffffffffffffffffff19161415620001db576040517f08c379a0000000000000000000000000000000000000000000000000000000008152600401620001d2906200031e565b60405180910390fd5b6001600080837bffffffffffffffffffffffffffffffffffffffffffffffffffffffff19167bffffffffffffffffffffffffffffffffffffffffffffffffffffffff1916815260200190815260200160002060006101000a81548160ff02191690831515021790555050565b828054620002559062000351565b90600052602060002090601f016020900481019282620002795760008555620002c5565b82601f106200029457805160ff1916838001178555620002c5565b82800160010185558215620002c5579182015b82811115620002c4578251825591602001919060010190620002a7565b5b509050620002d49190620002d8565b5090565b5b80821115620002f3576000816000905550600101620002d9565b5090565b600062000306601c8362000340565b91506200031382620003b6565b602082019050919050565b600060208201905081810360008301526200033981620002f7565b9050919050565b600082825260208201905092915050565b600060028204905060018216806200036a57607f821691505b6020821081141562000381576200038062000387565b5b50919050565b7f4e487b7100000000000000000000000000000000000000000000000000000000600052602260045260246000fd5b7f4552433136353a20696e76616c696420696e7465726661636520696400000000600082015250565b6146c880620003ef6000396000f3fe60806040526004361061014b5760003560e01c80636c0360eb116100b6578063a22cb4651161006f578063a22cb465146104d5578063a5758552146104fe578063b88d4fde14610527578063c87b56dd14610550578063d082e3811461058d578063e985e9c5146105b85761014b565b80636c0360eb146103d257806370a08231146103fd578063959d236d1461043a57806395d89b4114610456578063998442c514610481578063a1e98bbf146104ac5761014b565b806318160ddd1161010857806318160ddd1461029e57806323b872dd146102c95780632f745c59146102f257806342842e0e1461032f5780634f6ccce7146103585780636352211e146103955761014b565b806301ffc9a71461015057806306fdde031461018d578063081812fc146101b8578063095ea7b3146101f557806310ff8e311461021e578063150b7a0214610261575b600080fd5b34801561015c57600080fd5b5061017760048036038101906101729190613279565b6105f5565b604051610184919061388f565b60405180910390f35b34801561019957600080fd5b506101a261065c565b6040516101af91906138c5565b60405180910390f35b3480156101c457600080fd5b506101df60048036038101906101da919061331f565b6106ee565b6040516101ec919061378a565b60405180910390f35b34801561020157600080fd5b5061021c6004803603810190610217919061323d565b610773565b005b34801561022a57600080fd5b506102456004803603810190610240919061331f565b61088b565b60405161025897969594939291906138e7565b60405180910390f35b34801561026d57600080fd5b5061028860048036038101906102839190613106565b6109b2565b60405161029591906138aa565b60405180910390f35b3480156102aa57600080fd5b506102b36109c7565b6040516102c09190613bbd565b60405180910390f35b3480156102d557600080fd5b506102f060048036038101906102eb91906130b7565b6109d8565b005b3480156102fe57600080fd5b506103196004803603810190610314919061323d565b610a38565b6040516103269190613bbd565b60405180910390f35b34801561033b57600080fd5b50610356600480360381019061035191906130b7565b610a93565b005b34801561036457600080fd5b5061037f600480360381019061037a919061331f565b610ab3565b60405161038c9190613bbd565b60405180910390f35b3480156103a157600080fd5b506103bc60048036038101906103b7919061331f565b610ad6565b6040516103c9919061378a565b60405180910390f35b3480156103de57600080fd5b506103e7610b0d565b6040516103f491906138c5565b60405180910390f35b34801561040957600080fd5b50610424600480360381019061041f9190613029565b610b9f565b6040516104319190613bbd565b60405180910390f35b610454600480360381019061044f9190613348565b610c5e565b005b34801561046257600080fd5b5061046b610ed3565b60405161047891906138c5565b60405180910390f35b34801561048d57600080fd5b50610496610f65565b6040516104a39190613bbd565b60405180910390f35b3480156104b857600080fd5b506104d360048036038101906104ce91906132cb565b610f72565b005b3480156104e157600080fd5b506104fc60048036038101906104f79190613201565b61115e565b005b34801561050a57600080fd5b5061052560048036038101906105209190613052565b6112df565b005b34801561053357600080fd5b5061054e60048036038101906105499190613186565b61161b565b005b34801561055c57600080fd5b506105776004803603810190610572919061331f565b61167d565b60405161058491906138c5565b60405180910390f35b34801561059957600080fd5b506105a26117f0565b6040516105af9190613bbd565b60405180910390f35b3480156105c457600080fd5b506105df60048036038101906105da919061307b565b6117f6565b6040516105ec919061388f565b60405180910390f35b6000806000837bffffffffffffffffffffffffffffffffffffffffffffffffffffffff19167bffffffffffffffffffffffffffffffffffffffffffffffffffffffff1916815260200190815260200160002060009054906101000a900460ff169050919050565b60606006805461066b90613ef7565b80601f016020809104026020016040519081016040528092919081815260200182805461069790613ef7565b80156106e45780601f106106b9576101008083540402835291602001916106e4565b820191906000526020600020905b8154815290600101906020018083116106c757829003601f168201915b5050505050905090565b60006106f98261188a565b610738576040517f08c379a000000000000000000000000000000000000000000000000000000000815260040161072f90613add565b60405180910390fd5b6004600083815260200190815260200160002060009054906101000a900473ffffffffffffffffffffffffffffffffffffffff169050919050565b600061077e82610ad6565b90508073ffffffffffffffffffffffffffffffffffffffff168373ffffffffffffffffffffffffffffffffffffffff1614156107ef576040517f08c379a00000000000000000000000000000000000000000000000000000000081526004016107e690613b3d565b60405180910390fd5b8073ffffffffffffffffffffffffffffffffffffffff1661080e6118a7565b73ffffffffffffffffffffffffffffffffffffffff16148061083d575061083c816108376118a7565b6117f6565b5b61087c576040517f08c379a000000000000000000000000000000000000000000000000000000000815260040161087390613a5d565b60405180910390fd5b61088683836118af565b505050565b600e818154811061089b57600080fd5b90600052602060002090600702016000915090508060000180546108be90613ef7565b80601f01602080910402602001604051908101604052809291908181526020018280546108ea90613ef7565b80156109375780601f1061090c57610100808354040283529160200191610937565b820191906000526020600020905b81548152906001019060200180831161091a57829003601f168201915b5050505050908060010160009054906101000a900473ffffffffffffffffffffffffffffffffffffffff16908060020160009054906101000a900473ffffffffffffffffffffffffffffffffffffffff16908060030154908060040154908060050160009054906101000a900460ff16908060060154905087565b600063150b7a0260e01b905095945050505050565b60006109d36002611968565b905090565b6109e96109e36118a7565b8261197d565b610a28576040517f08c379a0000000000000000000000000000000000000000000000000000000008152600401610a1f90613b7d565b60405180910390fd5b610a33838383611a5b565b505050565b6000610a8b82600160008673ffffffffffffffffffffffffffffffffffffffff1673ffffffffffffffffffffffffffffffffffffffff168152602001908152602001600020611c7290919063ffffffff16565b905092915050565b610aae8383836040518060200160405280600081525061161b565b505050565b600080610aca836002611c8c90919063ffffffff16565b50905080915050919050565b6000610b068260405180606001604052806029815260200161466a602991396002611cb89092919063ffffffff16565b9050919050565b606060098054610b1c90613ef7565b80601f0160208091040260200160405190810160405280929190818152602001828054610b4890613ef7565b8015610b955780601f10610b6a57610100808354040283529160200191610b95565b820191906000526020600020905b815481529060010190602001808311610b7857829003601f168201915b5050505050905090565b60008073ffffffffffffffffffffffffffffffffffffffff168273ffffffffffffffffffffffffffffffffffffffff161415610c10576040517f08c379a0000000000000000000000000000000000000000000000000000000008152600401610c0790613a7d565b60405180910390fd5b610c57600160008473ffffffffffffffffffffffffffffffffffffffff1673ffffffffffffffffffffffffffffffffffffffff168152602001908152602001600020611cd7565b9050919050565b3373ffffffffffffffffffffffffffffffffffffffff168273ffffffffffffffffffffffffffffffffffffffff1614610c9657600080fd5b600e80549050610ca583610b9f565b10610ce5576040517f08c379a0000000000000000000000000000000000000000000000000000000008152600401610cdc9061397d565b60405180910390fd5b600083600b54610cf59190613d34565b905080341015610d3a576040517f08c379a0000000000000000000000000000000000000000000000000000000008152600401610d3190613b5d565b60405180910390fd5b7fa1ae1c3dc2af7c6c8c9a4ef52ac4339923ad24b812bf5d3b8ff27657659a119681604051610d699190613bbd565b60405180910390a16000610e1083610d819190613d34565b42610d8c9190613cad565b905060005b858160ff161015610e905760005b600e805490508160ff161015610e7c576000600e8260ff1681548110610dee577f4e487b7100000000000000000000000000000000000000000000000000000000600052603260045260246000fd5b906000526020600020906007020190508060050160009054906101000a900460ff16610e6857600a6000815480929190610e2790613f5a565b91905055506000600a549050610e3d3382611cec565b610e4e826001600b548b858a611d0a565b610e61610e5a82610ad6565b8983610a93565b5050610e7c565b508080610e7490613fa3565b915050610d9f565b508080610e8890613fa3565b915050610d91565b507fc7b4b06278b0dd5cbcf7b93c9b704a01fa4347bf747ff4791280f80cdab6fb35848642604051610ec493929190613858565b60405180910390a15050505050565b606060078054610ee290613ef7565b80601f0160208091040260200160405190810160405280929190818152602001828054610f0e90613ef7565b8015610f5b5780601f10610f3057610100808354040283529160200191610f5b565b820191906000526020600020905b815481529060010190602001808311610f3e57829003601f168201915b5050505050905090565b6000600e80549050905090565b6000806000806040518060e001604052808781526020018673ffffffffffffffffffffffffffffffffffffffff168152602001600d60009054906101000a900473ffffffffffffffffffffffffffffffffffffffff1673ffffffffffffffffffffffffffffffffffffffff168152602001858152602001848152602001831515815260200160008152509050600e8190806001815401808255809150506001900390600052602060002090600702016000909190919091506000820151816000019080519060200190611046929190612dae565b5060208201518160010160006101000a81548173ffffffffffffffffffffffffffffffffffffffff021916908373ffffffffffffffffffffffffffffffffffffffff16021790555060408201518160020160006101000a81548173ffffffffffffffffffffffffffffffffffffffff021916908373ffffffffffffffffffffffffffffffffffffffff160217905550606082015181600301556080820151816004015560a08201518160050160006101000a81548160ff02191690831515021790555060c0820151816006015550507f1296eb8b333c4b053b642e1d7810fbba75bb4f1654e9599e085f5e2788542a538160200151826000015160405161114e929190613828565b60405180910390a1505050505050565b6111666118a7565b73ffffffffffffffffffffffffffffffffffffffff168273ffffffffffffffffffffffffffffffffffffffff1614156111d4576040517f08c379a00000000000000000000000000000000000000000000000000000000081526004016111cb906139fd565b60405180910390fd5b80600560006111e16118a7565b73ffffffffffffffffffffffffffffffffffffffff1673ffffffffffffffffffffffffffffffffffffffff16815260200190815260200160002060008473ffffffffffffffffffffffffffffffffffffffff1673ffffffffffffffffffffffffffffffffffffffff16815260200190815260200160002060006101000a81548160ff0219169083151502179055508173ffffffffffffffffffffffffffffffffffffffff1661128e6118a7565b73ffffffffffffffffffffffffffffffffffffffff167f17307eab39ab6107e8899845ad3d59bd9653f200f220920489ca2b5937696c31836040516112d3919061388f565b60405180910390a35050565b60006112ea82610b9f565b905060005b818160ff1610156116165760005b600e805490508160ff161015611602576000600e8260ff168154811061134c577f4e487b7100000000000000000000000000000000000000000000000000000000600052603260045260246000fd5b906000526020600020906007020190508473ffffffffffffffffffffffffffffffffffffffff168160020160009054906101000a900473ffffffffffffffffffffffffffffffffffffffff1673ffffffffffffffffffffffffffffffffffffffff161480156113bf575042816006015410155b15611497577fac100af3f918c30d71d2bfb00d975e36374d10738748c899376504e76c70bc7385826004015483600301546040516113ff939291906137a5565b60405180910390a16114148160040154611d8c565b8473ffffffffffffffffffffffffffffffffffffffff166108fc82600301549081150290604051600060405180830381858888f1935050505015801561145e573d6000803e3d6000fd5b5061149181600080600d60009054906101000a900473ffffffffffffffffffffffffffffffffffffffff16600080611d0a565b50611602565b8473ffffffffffffffffffffffffffffffffffffffff168160020160009054906101000a900473ffffffffffffffffffffffffffffffffffffffff1673ffffffffffffffffffffffffffffffffffffffff161480156115075750610e1081600601546115039190613cad565b4210155b156115ee576000600c5482600301546115209190613d8e565b90507fac100af3f918c30d71d2bfb00d975e36374d10738748c899376504e76c70bc7386836004015483604051611559939291906137a5565b60405180910390a161156e8260040154611d8c565b8573ffffffffffffffffffffffffffffffffffffffff166108fc829081150290604051600060405180830381858888f193505050501580156115b4573d6000803e3d6000fd5b506115e782600080600d60009054906101000a900473ffffffffffffffffffffffffffffffffffffffff16600080611d0a565b5050611602565b5080806115fa90613fa3565b9150506112fd565b50808061160e90613fa3565b9150506112ef565b505050565b61162c6116266118a7565b8361197d565b61166b576040517f08c379a000000000000000000000000000000000000000000000000000000000815260040161166290613b7d565b60405180910390fd5b61167784848484611ebe565b50505050565b60606116888261188a565b6116c7576040517f08c379a00000000000000000000000000000000000000000000000000000000081526004016116be90613b1d565b60405180910390fd5b60006008600084815260200190815260200160002080546116e790613ef7565b80601f016020809104026020016040519081016040528092919081815260200182805461171390613ef7565b80156117605780601f1061173557610100808354040283529160200191611760565b820191906000526020600020905b81548152906001019060200180831161174357829003601f168201915b505050505090506000611771610b0d565b90506000815114156117875781925050506117eb565b6000825111156117bc5780826040516020016117a4929190613766565b604051602081830303815290604052925050506117eb565b806117c685611f1a565b6040516020016117d7929190613766565b604051602081830303815290604052925050505b919050565b600a5481565b6000600560008473ffffffffffffffffffffffffffffffffffffffff1673ffffffffffffffffffffffffffffffffffffffff16815260200190815260200160002060008373ffffffffffffffffffffffffffffffffffffffff1673ffffffffffffffffffffffffffffffffffffffff16815260200190815260200160002060009054906101000a900460ff16905092915050565b60006118a08260026120d990919063ffffffff16565b9050919050565b600033905090565b816004600083815260200190815260200160002060006101000a81548173ffffffffffffffffffffffffffffffffffffffff021916908373ffffffffffffffffffffffffffffffffffffffff160217905550808273ffffffffffffffffffffffffffffffffffffffff1661192283610ad6565b73ffffffffffffffffffffffffffffffffffffffff167f8c5be1e5ebec7d5bd14f71427d1e84f3dd0314c0f7b2291e5b200ac8c7c3b92560405160405180910390a45050565b6000611976826000016120f3565b9050919050565b60006119888261188a565b6119c7576040517f08c379a00000000000000000000000000000000000000000000000000000000081526004016119be90613a3d565b60405180910390fd5b60006119d283610ad6565b90508073ffffffffffffffffffffffffffffffffffffffff168473ffffffffffffffffffffffffffffffffffffffff161480611a4157508373ffffffffffffffffffffffffffffffffffffffff16611a29846106ee565b73ffffffffffffffffffffffffffffffffffffffff16145b80611a525750611a5181856117f6565b5b91505092915050565b8273ffffffffffffffffffffffffffffffffffffffff16611a7b82610ad6565b73ffffffffffffffffffffffffffffffffffffffff1614611ad1576040517f08c379a0000000000000000000000000000000000000000000000000000000008152600401611ac890613afd565b60405180910390fd5b600073ffffffffffffffffffffffffffffffffffffffff168273ffffffffffffffffffffffffffffffffffffffff161415611b41576040517f08c379a0000000000000000000000000000000000000000000000000000000008152600401611b38906139dd565b60405180910390fd5b611b4c838383612104565b611b576000826118af565b611ba881600160008673ffffffffffffffffffffffffffffffffffffffff1673ffffffffffffffffffffffffffffffffffffffff16815260200190815260200160002061210990919063ffffffff16565b50611bfa81600160008573ffffffffffffffffffffffffffffffffffffffff1673ffffffffffffffffffffffffffffffffffffffff16815260200190815260200160002061212390919063ffffffff16565b50611c118183600261213d9092919063ffffffff16565b50808273ffffffffffffffffffffffffffffffffffffffff168473ffffffffffffffffffffffffffffffffffffffff167fddf252ad1be2c89b69c2b068fc378daa952ba7f163c4a11628f55a4df523b3ef60405160405180910390a4505050565b6000611c818360000183612172565b60001c905092915050565b600080600080611c9f866000018661220c565b915091508160001c8160001c9350935050509250929050565b6000611ccb846000018460001b846122bc565b60001c90509392505050565b6000611ce582600001612383565b9050919050565b611d06828260405180602001604052806000815250612394565b5050565b848660050160006101000a81548160ff021916908315150217905550838660030181905550828660020160006101000a81548173ffffffffffffffffffffffffffffffffffffffff021916908373ffffffffffffffffffffffffffffffffffffffff160217905550818660040181905550808660060181905550505050505050565b6000611d9782610ad6565b9050611da581600084612104565b611db06000836118af565b6000600860008481526020019081526020016000208054611dd090613ef7565b905014611df757600860008381526020019081526020016000206000611df69190612e34565b5b611e4882600160008473ffffffffffffffffffffffffffffffffffffffff1673ffffffffffffffffffffffffffffffffffffffff16815260200190815260200160002061210990919063ffffffff16565b50611e5d8260026123ef90919063ffffffff16565b5081600073ffffffffffffffffffffffffffffffffffffffff168273ffffffffffffffffffffffffffffffffffffffff167fddf252ad1be2c89b69c2b068fc378daa952ba7f163c4a11628f55a4df523b3ef60405160405180910390a45050565b611ec9848484611a5b565b611ed584848484612409565b611f14576040517f08c379a0000000000000000000000000000000000000000000000000000000008152600401611f0b9061399d565b60405180910390fd5b50505050565b60606000821415611f62576040518060400160405280600181526020017f300000000000000000000000000000000000000000000000000000000000000081525090506120d4565b600082905060005b60008214611f94578080611f7d90613f5a565b915050600a82611f8d9190613d03565b9150611f6a565b60008167ffffffffffffffff811115611fd6577f4e487b7100000000000000000000000000000000000000000000000000000000600052604160045260246000fd5b6040519080825280601f01601f1916602001820160405280156120085781602001600182028036833780820191505090505b509050600060018361201a9190613d8e565b90508593505b600084146120cc57600a846120359190613fcd565b60306120419190613cad565b60f81b82828061205090613ecd565b935081518110612089577f4e487b7100000000000000000000000000000000000000000000000000000000600052603260045260246000fd5b60200101907effffffffffffffffffffffffffffffffffffffffffffffffffffffffffffff1916908160001a905350600a846120c59190613d03565b9350612020565b819450505050505b919050565b60006120eb836000018360001b61256d565b905092915050565b600081600001805490509050919050565b505050565b600061211b836000018360001b612590565b905092915050565b6000612135836000018360001b61271a565b905092915050565b6000612169846000018460001b8473ffffffffffffffffffffffffffffffffffffffff1660001b61278a565b90509392505050565b6000818360000180549050116121bd576040517f08c379a00000000000000000000000000000000000000000000000000000000081526004016121b49061395d565b60405180910390fd5b8260000182815481106121f9577f4e487b7100000000000000000000000000000000000000000000000000000000600052603260045260246000fd5b9060005260206000200154905092915050565b60008082846000018054905011612258576040517f08c379a000000000000000000000000000000000000000000000000000000000815260040161224f90613a9d565b60405180910390fd5b6000846000018481548110612296577f4e487b7100000000000000000000000000000000000000000000000000000000600052603260045260246000fd5b906000526020600020906002020190508060000154816001015492509250509250929050565b6000808460010160008581526020019081526020016000205490506000811415839061231e576040517f08c379a000000000000000000000000000000000000000000000000000000000815260040161231591906138c5565b60405180910390fd5b50846000016001826123309190613d8e565b81548110612367577f4e487b7100000000000000000000000000000000000000000000000000000000600052603260045260246000fd5b9060005260206000209060020201600101549150509392505050565b600081600001805490509050919050565b61239e838361289c565b6123ab6000848484612409565b6123ea576040517f08c379a00000000000000000000000000000000000000000000000000000000081526004016123e19061399d565b60405180910390fd5b505050565b6000612401836000018360001b612a2a565b905092915050565b600061242a8473ffffffffffffffffffffffffffffffffffffffff16612be5565b6124375760019050612565565b60006124fe63150b7a0260e01b61244c6118a7565b88878760405160240161246294939291906137dc565b604051602081830303815290604052907bffffffffffffffffffffffffffffffffffffffffffffffffffffffff19166020820180517bffffffffffffffffffffffffffffffffffffffffffffffffffffffff8381831617835250505050604051806060016040528060328152602001614638603291398773ffffffffffffffffffffffffffffffffffffffff16612bf89092919063ffffffff16565b905060008180602001905181019061251691906132a2565b905063150b7a0260e01b7bffffffffffffffffffffffffffffffffffffffffffffffffffffffff1916817bffffffffffffffffffffffffffffffffffffffffffffffffffffffff191614925050505b949350505050565b600080836001016000848152602001908152602001600020541415905092915050565b6000808360010160008481526020019081526020016000205490506000811461270e5760006001826125c29190613d8e565b90506000600186600001805490506125da9190613d8e565b9050600086600001828154811061261a577f4e487b7100000000000000000000000000000000000000000000000000000000600052603260045260246000fd5b9060005260206000200154905080876000018481548110612664577f4e487b7100000000000000000000000000000000000000000000000000000000600052603260045260246000fd5b906000526020600020018190555060018361267f9190613cad565b87600101600083815260200190815260200160002081905550866000018054806126d2577f4e487b7100000000000000000000000000000000000000000000000000000000600052603160045260246000fd5b60019003818190600052602060002001600090559055866001016000878152602001908152602001600020600090556001945050505050612714565b60009150505b92915050565b60006127268383612c10565b61277f578260000182908060018154018082558091505060019003906000526020600020016000909190919091505582600001805490508360010160008481526020019081526020016000208190555060019050612784565b600090505b92915050565b600080846001016000858152602001908152602001600020549050600081141561283157846000016040518060400160405280868152602001858152509080600181540180825580915050600190039060005260206000209060020201600090919091909150600082015181600001556020820151816001015550508460000180549050856001016000868152602001908152602001600020819055506001915050612895565b82856000016001836128439190613d8e565b8154811061287a577f4e487b7100000000000000000000000000000000000000000000000000000000600052603260045260246000fd5b90600052602060002090600202016001018190555060009150505b9392505050565b600073ffffffffffffffffffffffffffffffffffffffff168273ffffffffffffffffffffffffffffffffffffffff16141561290c576040517f08c379a000000000000000000000000000000000000000000000000000000000815260040161290390613abd565b60405180910390fd5b6129158161188a565b15612955576040517f08c379a000000000000000000000000000000000000000000000000000000000815260040161294c906139bd565b60405180910390fd5b61296160008383612104565b6129b281600160008573ffffffffffffffffffffffffffffffffffffffff1673ffffffffffffffffffffffffffffffffffffffff16815260200190815260200160002061212390919063ffffffff16565b506129c98183600261213d9092919063ffffffff16565b50808273ffffffffffffffffffffffffffffffffffffffff16600073ffffffffffffffffffffffffffffffffffffffff167fddf252ad1be2c89b69c2b068fc378daa952ba7f163c4a11628f55a4df523b3ef60405160405180910390a45050565b60008083600101600084815260200190815260200160002054905060008114612bd9576000600182612a5c9190613d8e565b9050600060018660000180549050612a749190613d8e565b90506000866000018281548110612ab4577f4e487b7100000000000000000000000000000000000000000000000000000000600052603260045260246000fd5b9060005260206000209060020201905080876000018481548110612b01577f4e487b7100000000000000000000000000000000000000000000000000000000600052603260045260246000fd5b90600052602060002090600202016000820154816000015560018201548160010155905050600183612b339190613cad565b876001016000836000015481526020019081526020016000208190555086600001805480612b8a577f4e487b7100000000000000000000000000000000000000000000000000000000600052603160045260246000fd5b6001900381819060005260206000209060020201600080820160009055600182016000905550509055866001016000878152602001908152602001600020600090556001945050505050612bdf565b60009150505b92915050565b600080823b905060008111915050919050565b6060612c078484600085612c33565b90509392505050565b600080836001016000848152602001908152602001600020541415905092915050565b606082471015612c78576040517f08c379a0000000000000000000000000000000000000000000000000000000008152600401612c6f90613a1d565b60405180910390fd5b612c8185612be5565b612cc0576040517f08c379a0000000000000000000000000000000000000000000000000000000008152600401612cb790613b9d565b60405180910390fd5b6000808673ffffffffffffffffffffffffffffffffffffffff168587604051612ce9919061374f565b60006040518083038185875af1925050503d8060008114612d26576040519150601f19603f3d011682016040523d82523d6000602084013e612d2b565b606091505b5091509150612d3b828286612d47565b92505050949350505050565b60608315612d5757829050612da7565b600083511115612d6a5782518084602001fd5b816040517f08c379a0000000000000000000000000000000000000000000000000000000008152600401612d9e91906138c5565b60405180910390fd5b9392505050565b828054612dba90613ef7565b90600052602060002090601f016020900481019282612ddc5760008555612e23565b82601f10612df557805160ff1916838001178555612e23565b82800160010185558215612e23579182015b82811115612e22578251825591602001919060010190612e07565b5b509050612e309190612e74565b5090565b508054612e4090613ef7565b6000825580601f10612e525750612e71565b601f016020900490600052602060002090810190612e709190612e74565b5b50565b5b80821115612e8d576000816000905550600101612e75565b5090565b6000612ea4612e9f84613bfd565b613bd8565b905082815260208101848484011115612ebc57600080fd5b612ec7848285613e8b565b509392505050565b6000612ee2612edd84613c2e565b613bd8565b905082815260208101848484011115612efa57600080fd5b612f05848285613e8b565b509392505050565b600081359050612f1c816145c4565b92915050565b600081359050612f31816145db565b92915050565b600081359050612f46816145f2565b92915050565b600081359050612f5b81614609565b92915050565b600081519050612f7081614609565b92915050565b60008083601f840112612f8857600080fd5b8235905067ffffffffffffffff811115612fa157600080fd5b602083019150836001820283011115612fb957600080fd5b9250929050565b600082601f830112612fd157600080fd5b8135612fe1848260208601612e91565b91505092915050565b600082601f830112612ffb57600080fd5b813561300b848260208601612ecf565b91505092915050565b60008135905061302381614620565b92915050565b60006020828403121561303b57600080fd5b600061304984828501612f0d565b91505092915050565b60006020828403121561306457600080fd5b600061307284828501612f22565b91505092915050565b6000806040838503121561308e57600080fd5b600061309c85828601612f0d565b92505060206130ad85828601612f0d565b9150509250929050565b6000806000606084860312156130cc57600080fd5b60006130da86828701612f0d565b93505060206130eb86828701612f0d565b92505060406130fc86828701613014565b9150509250925092565b60008060008060006080868803121561311e57600080fd5b600061312c88828901612f0d565b955050602061313d88828901612f0d565b945050604061314e88828901613014565b935050606086013567ffffffffffffffff81111561316b57600080fd5b61317788828901612f76565b92509250509295509295909350565b6000806000806080858703121561319c57600080fd5b60006131aa87828801612f0d565b94505060206131bb87828801612f0d565b93505060406131cc87828801613014565b925050606085013567ffffffffffffffff8111156131e957600080fd5b6131f587828801612fc0565b91505092959194509250565b6000806040838503121561321457600080fd5b600061322285828601612f0d565b925050602061323385828601612f37565b9150509250929050565b6000806040838503121561325057600080fd5b600061325e85828601612f0d565b925050602061326f85828601613014565b9150509250929050565b60006020828403121561328b57600080fd5b600061329984828501612f4c565b91505092915050565b6000602082840312156132b457600080fd5b60006132c284828501612f61565b91505092915050565b600080604083850312156132de57600080fd5b600083013567ffffffffffffffff8111156132f857600080fd5b61330485828601612fea565b925050602061331585828601612f0d565b9150509250929050565b60006020828403121561333157600080fd5b600061333f84828501613014565b91505092915050565b60008060006060848603121561335d57600080fd5b600061336b86828701613014565b935050602061337c86828701612f0d565b925050604061338d86828701613014565b9150509250925092565b6133a081613e55565b82525050565b6133af81613dc2565b82525050565b6133be81613de6565b82525050565b6133cd81613df2565b82525050565b60006133de82613c5f565b6133e88185613c75565b93506133f8818560208601613e9a565b613401816140ba565b840191505092915050565b600061341782613c5f565b6134218185613c86565b9350613431818560208601613e9a565b80840191505092915050565b600061344882613c6a565b6134528185613c91565b9350613462818560208601613e9a565b61346b816140ba565b840191505092915050565b600061348182613c6a565b61348b8185613ca2565b935061349b818560208601613e9a565b80840191505092915050565b60006134b4602283613c91565b91506134bf826140cb565b604082019050919050565b60006134d7601c83613c91565b91506134e28261411a565b602082019050919050565b60006134fa603283613c91565b915061350582614143565b604082019050919050565b600061351d601c83613c91565b915061352882614192565b602082019050919050565b6000613540602483613c91565b915061354b826141bb565b604082019050919050565b6000613563601983613c91565b915061356e8261420a565b602082019050919050565b6000613586602683613c91565b915061359182614233565b604082019050919050565b60006135a9602c83613c91565b91506135b482614282565b604082019050919050565b60006135cc603883613c91565b91506135d7826142d1565b604082019050919050565b60006135ef602a83613c91565b91506135fa82614320565b604082019050919050565b6000613612602283613c91565b915061361d8261436f565b604082019050919050565b6000613635602083613c91565b9150613640826143be565b602082019050919050565b6000613658602c83613c91565b9150613663826143e7565b604082019050919050565b600061367b602983613c91565b915061368682614436565b604082019050919050565b600061369e602f83613c91565b91506136a982614485565b604082019050919050565b60006136c1602183613c91565b91506136cc826144d4565b604082019050919050565b60006136e4601583613c91565b91506136ef82614523565b602082019050919050565b6000613707603183613c91565b91506137128261454c565b604082019050919050565b600061372a601d83613c91565b91506137358261459b565b602082019050919050565b61374981613e3e565b82525050565b600061375b828461340c565b915081905092915050565b60006137728285613476565b915061377e8284613476565b91508190509392505050565b600060208201905061379f60008301846133a6565b92915050565b60006060820190506137ba6000830186613397565b6137c76020830185613740565b6137d46040830184613740565b949350505050565b60006080820190506137f160008301876133a6565b6137fe60208301866133a6565b61380b6040830185613740565b818103606083015261381d81846133d3565b905095945050505050565b600060408201905061383d60008301856133a6565b818103602083015261384f818461343d565b90509392505050565b600060608201905061386d60008301866133a6565b61387a6020830185613740565b6138876040830184613740565b949350505050565b60006020820190506138a460008301846133b5565b92915050565b60006020820190506138bf60008301846133c4565b92915050565b600060208201905081810360008301526138df818461343d565b905092915050565b600060e0820190508181036000830152613901818a61343d565b905061391060208301896133a6565b61391d60408301886133a6565b61392a6060830187613740565b6139376080830186613740565b61394460a08301856133b5565b61395160c0830184613740565b98975050505050505050565b60006020820190508181036000830152613976816134a7565b9050919050565b60006020820190508181036000830152613996816134ca565b9050919050565b600060208201905081810360008301526139b6816134ed565b9050919050565b600060208201905081810360008301526139d681613510565b9050919050565b600060208201905081810360008301526139f681613533565b9050919050565b60006020820190508181036000830152613a1681613556565b9050919050565b60006020820190508181036000830152613a3681613579565b9050919050565b60006020820190508181036000830152613a568161359c565b9050919050565b60006020820190508181036000830152613a76816135bf565b9050919050565b60006020820190508181036000830152613a96816135e2565b9050919050565b60006020820190508181036000830152613ab681613605565b9050919050565b60006020820190508181036000830152613ad681613628565b9050919050565b60006020820190508181036000830152613af68161364b565b9050919050565b60006020820190508181036000830152613b168161366e565b9050919050565b60006020820190508181036000830152613b3681613691565b9050919050565b60006020820190508181036000830152613b56816136b4565b9050919050565b60006020820190508181036000830152613b76816136d7565b9050919050565b60006020820190508181036000830152613b96816136fa565b9050919050565b60006020820190508181036000830152613bb68161371d565b9050919050565b6000602082019050613bd26000830184613740565b92915050565b6000613be2613bf3565b9050613bee8282613f29565b919050565b6000604051905090565b600067ffffffffffffffff821115613c1857613c1761408b565b5b613c21826140ba565b9050602081019050919050565b600067ffffffffffffffff821115613c4957613c4861408b565b5b613c52826140ba565b9050602081019050919050565b600081519050919050565b600081519050919050565b600082825260208201905092915050565b600081905092915050565b600082825260208201905092915050565b600081905092915050565b6000613cb882613e3e565b9150613cc383613e3e565b9250827fffffffffffffffffffffffffffffffffffffffffffffffffffffffffffffffff03821115613cf857613cf7613ffe565b5b828201905092915050565b6000613d0e82613e3e565b9150613d1983613e3e565b925082613d2957613d2861402d565b5b828204905092915050565b6000613d3f82613e3e565b9150613d4a83613e3e565b9250817fffffffffffffffffffffffffffffffffffffffffffffffffffffffffffffffff0483118215151615613d8357613d82613ffe565b5b828202905092915050565b6000613d9982613e3e565b9150613da483613e3e565b925082821015613db757613db6613ffe565b5b828203905092915050565b6000613dcd82613e1e565b9050919050565b6000613ddf82613e1e565b9050919050565b60008115159050919050565b60007fffffffff0000000000000000000000000000000000000000000000000000000082169050919050565b600073ffffffffffffffffffffffffffffffffffffffff82169050919050565b6000819050919050565b600060ff82169050919050565b6000613e6082613e67565b9050919050565b6000613e7282613e79565b9050919050565b6000613e8482613e1e565b9050919050565b82818337600083830152505050565b60005b83811015613eb8578082015181840152602081019050613e9d565b83811115613ec7576000848401525b50505050565b6000613ed882613e3e565b91506000821415613eec57613eeb613ffe565b5b600182039050919050565b60006002820490506001821680613f0f57607f821691505b60208210811415613f2357613f2261405c565b5b50919050565b613f32826140ba565b810181811067ffffffffffffffff82111715613f5157613f5061408b565b5b80604052505050565b6000613f6582613e3e565b91507fffffffffffffffffffffffffffffffffffffffffffffffffffffffffffffffff821415613f9857613f97613ffe565b5b600182019050919050565b6000613fae82613e48565b915060ff821415613fc257613fc1613ffe565b5b600182019050919050565b6000613fd882613e3e565b9150613fe383613e3e565b925082613ff357613ff261402d565b5b828206905092915050565b7f4e487b7100000000000000000000000000000000000000000000000000000000600052601160045260246000fd5b7f4e487b7100000000000000000000000000000000000000000000000000000000600052601260045260246000fd5b7f4e487b7100000000000000000000000000000000000000000000000000000000600052602260045260246000fd5b7f4e487b7100000000000000000000000000000000000000000000000000000000600052604160045260246000fd5b6000601f19601f8301169050919050565b7f456e756d657261626c655365743a20696e646578206f7574206f6620626f756e60008201527f6473000000000000000000000000000000000000000000000000000000000000602082015250565b7f416c6c20646576696365732068617665206265656e206c6f616e656400000000600082015250565b7f4552433732313a207472616e7366657220746f206e6f6e20455243373231526560008201527f63656976657220696d706c656d656e7465720000000000000000000000000000602082015250565b7f4552433732313a20746f6b656e20616c7265616479206d696e74656400000000600082015250565b7f4552433732313a207472616e7366657220746f20746865207a65726f2061646460008201527f7265737300000000000000000000000000000000000000000000000000000000602082015250565b7f4552433732313a20617070726f766520746f2063616c6c657200000000000000600082015250565b7f416464726573733a20696e73756666696369656e742062616c616e636520666f60008201527f722063616c6c0000000000000000000000000000000000000000000000000000602082015250565b7f4552433732313a206f70657261746f7220717565727920666f72206e6f6e657860008201527f697374656e7420746f6b656e0000000000000000000000000000000000000000602082015250565b7f4552433732313a20617070726f76652063616c6c6572206973206e6f74206f7760008201527f6e6572206e6f7220617070726f76656420666f7220616c6c0000000000000000602082015250565b7f4552433732313a2062616c616e636520717565727920666f7220746865207a6560008201527f726f206164647265737300000000000000000000000000000000000000000000602082015250565b7f456e756d657261626c654d61703a20696e646578206f7574206f6620626f756e60008201527f6473000000000000000000000000000000000000000000000000000000000000602082015250565b7f4552433732313a206d696e7420746f20746865207a65726f2061646472657373600082015250565b7f4552433732313a20617070726f76656420717565727920666f72206e6f6e657860008201527f697374656e7420746f6b656e0000000000000000000000000000000000000000602082015250565b7f4552433732313a207472616e73666572206f6620746f6b656e2074686174206960008201527f73206e6f74206f776e0000000000000000000000000000000000000000000000602082015250565b7f4552433732314d657461646174613a2055524920717565727920666f72206e6f60008201527f6e6578697374656e7420746f6b656e0000000000000000000000000000000000602082015250565b7f4552433732313a20617070726f76616c20746f2063757272656e74206f776e6560008201527f7200000000000000000000000000000000000000000000000000000000000000602082015250565b7f6e6f7420656e6f756768206d6f6e65792073656e740000000000000000000000600082015250565b7f4552433732313a207472616e736665722063616c6c6572206973206e6f74206f60008201527f776e6572206e6f7220617070726f766564000000000000000000000000000000602082015250565b7f416464726573733a2063616c6c20746f206e6f6e2d636f6e7472616374000000600082015250565b6145cd81613dc2565b81146145d857600080fd5b50565b6145e481613dd4565b81146145ef57600080fd5b50565b6145fb81613de6565b811461460657600080fd5b50565b61461281613df2565b811461461d57600080fd5b50565b61462981613e3e565b811461463457600080fd5b5056fe4552433732313a207472616e7366657220746f206e6f6e20455243373231526563656976657220696d706c656d656e7465724552433732313a206f776e657220717565727920666f72206e6f6e6578697374656e7420746f6b656ea2646970667358221220986ca5e4ba9df8ee92859f6349224cd7bf99467bfcfa310acb0ca37d6a59d75264736f6c63430008030033",
  "immutableReferences": {},
  "source": "// SPDX-License-Identifier: MIT\r\npragma solidity  ^0.8.0;\r\n\r\nimport \"../node_modules/@openzeppelin/contracts/token/ERC721/ERC721.sol\";\r\nimport \"../node_modules/@openzeppelin/contracts/token/ERC721/IERC721Receiver.sol\";\r\n\r\ncontract DeviceToken is ERC721,IERC721Receiver {\r\n\r\n    uint256 public tokenCounter;\r\n    uint256 private DEPOSIT_FEE;\r\n    uint256 private  LATE_FEE;\r\n    address private admin;\r\n    \r\n    event DeviceAdded(address _newDevice, string _name);\r\n    event DevicesLoaned(address _to, uint numberOfDevices, uint date);\r\n    event PaymentCollected(uint _value);\r\n    event TokenRedeemed(address _holder, uint _Id, uint amountSent);\r\n  \r\n    struct Device {\r\n\r\n        string  deviceName;\r\n        address deviceAddress;\r\n        address deviceOwner;\r\n        uint collateral;\r\n        uint tokenId;\r\n        bool loaned;\r\n        uint loanPeriod;\r\n            \r\n    }\r\n\r\n     Device[] public devices;\r\n    \r\n\r\n    constructor() ERC721(\"deviceToken\", \"DEV\") public payable {\r\n        tokenCounter = 0;\r\n        DEPOSIT_FEE = 0.005 ether;\r\n        LATE_FEE = 0.002 ether;\r\n        admin = msg.sender;\r\n    }\r\n    \r\n    function onERC721Received(address operator, address from, uint256 tokenId, bytes calldata data) external virtual override returns (bytes4){\r\n        return this.onERC721Received.selector;\r\n    }\r\n\r\n    function addDevice(string memory _newName, address _NewAddress) public {\r\n        \r\n        uint eth = 0;\r\n        uint newId = 0;\r\n        bool status = false;\r\n        Device memory newDevice = Device( _newName,_NewAddress,admin, eth, newId, status ,0);\r\n        devices.push(newDevice);\r\n        emit DeviceAdded(newDevice.deviceAddress,newDevice.deviceName);\r\n\r\n    }\r\n\r\n\r\n    function setDeviceSatus(Device storage _d, bool isLoaned ,uint ethValue, address newOwner , uint newId,  uint duration) internal  {\r\n\r\n        _d.loaned = isLoaned;\r\n        _d.collateral = ethValue;\r\n        _d.deviceOwner = newOwner;\r\n        _d.tokenId = newId;\r\n        _d.loanPeriod = duration;\r\n\r\n\r\n    }\r\n    \r\n    function returnDeviceCount() public view returns(uint count){\r\n        return devices.length;\r\n    }\r\n\r\n    function loanToken(uint _devices, address requestedAddress, uint _duration) payable public {\r\n        \r\n        require(requestedAddress == msg.sender);\r\n        require(balanceOf(requestedAddress) < devices.length, \"All devices have been loaned\");\r\n        uint _amount = DEPOSIT_FEE *_devices;\r\n        \r\n        require(msg.value >= _amount, \"not enough money sent\");\r\n        emit PaymentCollected(_amount);\r\n        \r\n        uint loanDuartion = block.timestamp + (_duration*3600);\r\n\r\n        for(uint8 i = 0; i < _devices; i++) {\r\n            \r\n\r\n            for(uint8 j = 0; j < devices.length ; j++){\r\n\r\n               Device storage requestedDevice = devices[j];\r\n\r\n               if(!(requestedDevice.loaned)){\r\n                   \r\n                   tokenCounter++;\r\n                   uint _id = tokenCounter;\r\n                  _safeMint(msg.sender,_id);\r\n                   setDeviceSatus(requestedDevice, true ,DEPOSIT_FEE , requestedAddress, _id, loanDuartion);\r\n                   safeTransferFrom(ownerOf(_id), requestedAddress, _id);\r\n                   \r\n                   break;\r\n\r\n               }         \r\n\r\n            }\r\n\r\n            \r\n        }\r\n        \r\n        emit DevicesLoaned(requestedAddress, _devices, block.timestamp);\r\n\r\n        \r\n    }\r\n\r\n    function redeemTokens(address payable tokenHolder) public {\r\n       \r\n       uint tokenCount = balanceOf(tokenHolder);\r\n    \r\n\r\n        for(uint8 i = 0; i < tokenCount; i++){\r\n\r\n            for(uint8 j = 0; j < devices.length; j++){\r\n\r\n                Device storage returnedDevice = devices[j];\r\n\r\n                if(returnedDevice.deviceOwner == tokenHolder && returnedDevice.loanPeriod >= block.timestamp){\r\n                    \r\n                    emit TokenRedeemed(tokenHolder,returnedDevice.tokenId, returnedDevice.collateral);\r\n                   _burn(returnedDevice.tokenId); \r\n                   tokenHolder.transfer(returnedDevice.collateral);\r\n                   setDeviceSatus(returnedDevice, false, 0, admin, 0,0);                 \r\n                   break;\r\n\r\n               }\r\n               if(returnedDevice.deviceOwner == tokenHolder && block.timestamp >= (returnedDevice.loanPeriod+ 3600)){\r\n                   \r\n                   uint penalty = returnedDevice.collateral - LATE_FEE;\r\n                   emit TokenRedeemed(tokenHolder,returnedDevice.tokenId, penalty);\r\n                   _burn(returnedDevice.tokenId); \r\n                   tokenHolder.transfer((penalty));\r\n                   setDeviceSatus(returnedDevice, false, 0, admin, 0,0);\r\n                   break;\r\n                   \r\n               }\r\n\r\n            }\r\n\r\n        }\r\n        \r\n\r\n    }\r\n\r\n      \r\n} \r\n\r\n",
  "sourcePath": "C:/Users/JJsse/Documents/IoT-Dapp/Backend/contracts/DeviceToken.sol",
  "compiler": {
    "name": "solc",
    "version": "0.8.3+commit.8d00100c.Emscripten.clang"
  },
  "schemaVersion": "3.3.4",
  "updatedAt": "2021-05-07T11:12:07.106Z",
  "networkType": "ethereum",
  "devdoc": {
    "kind": "dev",
    "methods": {
      "approve(address,uint256)": {
        "details": "See {IERC721-approve}."
      },
      "balanceOf(address)": {
        "details": "See {IERC721-balanceOf}."
      },
      "baseURI()": {
        "details": "Returns the base URI set via {_setBaseURI}. This will be automatically added as a prefix in {tokenURI} to each token's URI, or to the token ID if no specific URI is set for that token ID."
      },
      "getApproved(uint256)": {
        "details": "See {IERC721-getApproved}."
      },
      "isApprovedForAll(address,address)": {
        "details": "See {IERC721-isApprovedForAll}."
      },
      "name()": {
        "details": "See {IERC721Metadata-name}."
      },
      "onERC721Received(address,address,uint256,bytes)": {
        "details": "Whenever an {IERC721} `tokenId` token is transferred to this contract via {IERC721-safeTransferFrom} by `operator` from `from`, this function is called. It must return its Solidity selector to confirm the token transfer. If any other value is returned or the interface is not implemented by the recipient, the transfer will be reverted. The selector can be obtained in Solidity with `IERC721.onERC721Received.selector`."
      },
      "ownerOf(uint256)": {
        "details": "See {IERC721-ownerOf}."
      },
      "safeTransferFrom(address,address,uint256)": {
        "details": "See {IERC721-safeTransferFrom}."
      },
      "safeTransferFrom(address,address,uint256,bytes)": {
        "details": "See {IERC721-safeTransferFrom}."
      },
      "setApprovalForAll(address,bool)": {
        "details": "See {IERC721-setApprovalForAll}."
      },
      "supportsInterface(bytes4)": {
        "details": "See {IERC165-supportsInterface}. Time complexity O(1), guaranteed to always use less than 30 000 gas."
      },
      "symbol()": {
        "details": "See {IERC721Metadata-symbol}."
      },
      "tokenByIndex(uint256)": {
        "details": "See {IERC721Enumerable-tokenByIndex}."
      },
      "tokenOfOwnerByIndex(address,uint256)": {
        "details": "See {IERC721Enumerable-tokenOfOwnerByIndex}."
      },
      "tokenURI(uint256)": {
        "details": "See {IERC721Metadata-tokenURI}."
      },
      "totalSupply()": {
        "details": "See {IERC721Enumerable-totalSupply}."
      },
      "transferFrom(address,address,uint256)": {
        "details": "See {IERC721-transferFrom}."
      }
    },
    "version": 1
  },
  "userdoc": {
    "kind": "user",
    "methods": {},
    "version": 1
  }
}